{
  "_format": "hh-sol-artifact-1",
  "contractName": "astarSoneiumVenezuela",
  "sourceName": "contracts/venezuela-collection.sol",
  "abi": [
    {
      "inputs": [
        {
          "internalType": "address",
          "name": "initialOwner",
          "type": "address"
        }
      ],
      "stateMutability": "nonpayable",
      "type": "constructor"
    },
    {
      "inputs": [],
      "name": "ERC721EnumerableForbiddenBatchMint",
      "type": "error"
    },
    {
      "inputs": [
        {
          "internalType": "address",
          "name": "sender",
          "type": "address"
        },
        {
          "internalType": "uint256",
          "name": "tokenId",
          "type": "uint256"
        },
        {
          "internalType": "address",
          "name": "owner",
          "type": "address"
        }
      ],
      "name": "ERC721IncorrectOwner",
      "type": "error"
    },
    {
      "inputs": [
        {
          "internalType": "address",
          "name": "operator",
          "type": "address"
        },
        {
          "internalType": "uint256",
          "name": "tokenId",
          "type": "uint256"
        }
      ],
      "name": "ERC721InsufficientApproval",
      "type": "error"
    },
    {
      "inputs": [
        {
          "internalType": "address",
          "name": "approver",
          "type": "address"
        }
      ],
      "name": "ERC721InvalidApprover",
      "type": "error"
    },
    {
      "inputs": [
        {
          "internalType": "address",
          "name": "operator",
          "type": "address"
        }
      ],
      "name": "ERC721InvalidOperator",
      "type": "error"
    },
    {
      "inputs": [
        {
          "internalType": "address",
          "name": "owner",
          "type": "address"
        }
      ],
      "name": "ERC721InvalidOwner",
      "type": "error"
    },
    {
      "inputs": [
        {
          "internalType": "address",
          "name": "receiver",
          "type": "address"
        }
      ],
      "name": "ERC721InvalidReceiver",
      "type": "error"
    },
    {
      "inputs": [
        {
          "internalType": "address",
          "name": "sender",
          "type": "address"
        }
      ],
      "name": "ERC721InvalidSender",
      "type": "error"
    },
    {
      "inputs": [
        {
          "internalType": "uint256",
          "name": "tokenId",
          "type": "uint256"
        }
      ],
      "name": "ERC721NonexistentToken",
      "type": "error"
    },
    {
      "inputs": [
        {
          "internalType": "address",
          "name": "owner",
          "type": "address"
        },
        {
          "internalType": "uint256",
          "name": "index",
          "type": "uint256"
        }
      ],
      "name": "ERC721OutOfBoundsIndex",
      "type": "error"
    },
    {
      "inputs": [
        {
          "internalType": "address",
          "name": "owner",
          "type": "address"
        }
      ],
      "name": "OwnableInvalidOwner",
      "type": "error"
    },
    {
      "inputs": [
        {
          "internalType": "address",
          "name": "account",
          "type": "address"
        }
      ],
      "name": "OwnableUnauthorizedAccount",
      "type": "error"
    },
    {
      "anonymous": false,
      "inputs": [
        {
          "indexed": true,
          "internalType": "address",
          "name": "owner",
          "type": "address"
        },
        {
          "indexed": true,
          "internalType": "address",
          "name": "approved",
          "type": "address"
        },
        {
          "indexed": true,
          "internalType": "uint256",
          "name": "tokenId",
          "type": "uint256"
        }
      ],
      "name": "Approval",
      "type": "event"
    },
    {
      "anonymous": false,
      "inputs": [
        {
          "indexed": true,
          "internalType": "address",
          "name": "owner",
          "type": "address"
        },
        {
          "indexed": true,
          "internalType": "address",
          "name": "operator",
          "type": "address"
        },
        {
          "indexed": false,
          "internalType": "bool",
          "name": "approved",
          "type": "bool"
        }
      ],
      "name": "ApprovalForAll",
      "type": "event"
    },
    {
      "anonymous": false,
      "inputs": [
        {
          "indexed": false,
          "internalType": "uint256",
          "name": "_fromTokenId",
          "type": "uint256"
        },
        {
          "indexed": false,
          "internalType": "uint256",
          "name": "_toTokenId",
          "type": "uint256"
        }
      ],
      "name": "BatchMetadataUpdate",
      "type": "event"
    },
    {
      "anonymous": false,
      "inputs": [
        {
          "indexed": false,
          "internalType": "uint256",
          "name": "_tokenId",
          "type": "uint256"
        }
      ],
      "name": "MetadataUpdate",
      "type": "event"
    },
    {
      "anonymous": false,
      "inputs": [
        {
          "indexed": true,
          "internalType": "address",
          "name": "previousOwner",
          "type": "address"
        },
        {
          "indexed": true,
          "internalType": "address",
          "name": "newOwner",
          "type": "address"
        }
      ],
      "name": "OwnershipTransferred",
      "type": "event"
    },
    {
      "anonymous": false,
      "inputs": [
        {
          "indexed": true,
          "internalType": "address",
          "name": "from",
          "type": "address"
        },
        {
          "indexed": true,
          "internalType": "address",
          "name": "to",
          "type": "address"
        },
        {
          "indexed": true,
          "internalType": "uint256",
          "name": "tokenId",
          "type": "uint256"
        }
      ],
      "name": "Transfer",
      "type": "event"
    },
    {
      "inputs": [
        {
          "internalType": "address",
          "name": "to",
          "type": "address"
        },
        {
          "internalType": "uint256",
          "name": "tokenId",
          "type": "uint256"
        }
      ],
      "name": "approve",
      "outputs": [],
      "stateMutability": "nonpayable",
      "type": "function"
    },
    {
      "inputs": [
        {
          "internalType": "address",
          "name": "owner",
          "type": "address"
        }
      ],
      "name": "balanceOf",
      "outputs": [
        {
          "internalType": "uint256",
          "name": "",
          "type": "uint256"
        }
      ],
      "stateMutability": "view",
      "type": "function"
    },
    {
      "inputs": [
        {
          "internalType": "uint256",
          "name": "tokenId",
          "type": "uint256"
        }
      ],
      "name": "getApproved",
      "outputs": [
        {
          "internalType": "address",
          "name": "",
          "type": "address"
        }
      ],
      "stateMutability": "view",
      "type": "function"
    },
    {
      "inputs": [
        {
          "internalType": "address",
          "name": "owner",
          "type": "address"
        },
        {
          "internalType": "address",
          "name": "operator",
          "type": "address"
        }
      ],
      "name": "isApprovedForAll",
      "outputs": [
        {
          "internalType": "bool",
          "name": "",
          "type": "bool"
        }
      ],
      "stateMutability": "view",
      "type": "function"
    },
    {
      "inputs": [],
      "name": "name",
      "outputs": [
        {
          "internalType": "string",
          "name": "",
          "type": "string"
        }
      ],
      "stateMutability": "view",
      "type": "function"
    },
    {
      "inputs": [],
      "name": "owner",
      "outputs": [
        {
          "internalType": "address",
          "name": "",
          "type": "address"
        }
      ],
      "stateMutability": "view",
      "type": "function"
    },
    {
      "inputs": [
        {
          "internalType": "uint256",
          "name": "tokenId",
          "type": "uint256"
        }
      ],
      "name": "ownerOf",
      "outputs": [
        {
          "internalType": "address",
          "name": "",
          "type": "address"
        }
      ],
      "stateMutability": "view",
      "type": "function"
    },
    {
      "inputs": [],
      "name": "renounceOwnership",
      "outputs": [],
      "stateMutability": "nonpayable",
      "type": "function"
    },
    {
      "inputs": [
        {
          "internalType": "address",
          "name": "to",
          "type": "address"
        }
      ],
      "name": "safeMint",
      "outputs": [
        {
          "internalType": "uint256",
          "name": "",
          "type": "uint256"
        }
      ],
      "stateMutability": "nonpayable",
      "type": "function"
    },
    {
      "inputs": [
        {
          "internalType": "address",
          "name": "from",
          "type": "address"
        },
        {
          "internalType": "address",
          "name": "to",
          "type": "address"
        },
        {
          "internalType": "uint256",
          "name": "tokenId",
          "type": "uint256"
        }
      ],
      "name": "safeTransferFrom",
      "outputs": [],
      "stateMutability": "nonpayable",
      "type": "function"
    },
    {
      "inputs": [
        {
          "internalType": "address",
          "name": "from",
          "type": "address"
        },
        {
          "internalType": "address",
          "name": "to",
          "type": "address"
        },
        {
          "internalType": "uint256",
          "name": "tokenId",
          "type": "uint256"
        },
        {
          "internalType": "bytes",
          "name": "data",
          "type": "bytes"
        }
      ],
      "name": "safeTransferFrom",
      "outputs": [],
      "stateMutability": "nonpayable",
      "type": "function"
    },
    {
      "inputs": [
        {
          "internalType": "address",
          "name": "operator",
          "type": "address"
        },
        {
          "internalType": "bool",
          "name": "approved",
          "type": "bool"
        }
      ],
      "name": "setApprovalForAll",
      "outputs": [],
      "stateMutability": "nonpayable",
      "type": "function"
    },
    {
      "inputs": [
        {
          "internalType": "bytes4",
          "name": "interfaceId",
          "type": "bytes4"
        }
      ],
      "name": "supportsInterface",
      "outputs": [
        {
          "internalType": "bool",
          "name": "",
          "type": "bool"
        }
      ],
      "stateMutability": "view",
      "type": "function"
    },
    {
      "inputs": [],
      "name": "symbol",
      "outputs": [
        {
          "internalType": "string",
          "name": "",
          "type": "string"
        }
      ],
      "stateMutability": "view",
      "type": "function"
    },
    {
      "inputs": [
        {
          "internalType": "uint256",
          "name": "index",
          "type": "uint256"
        }
      ],
      "name": "tokenByIndex",
      "outputs": [
        {
          "internalType": "uint256",
          "name": "",
          "type": "uint256"
        }
      ],
      "stateMutability": "view",
      "type": "function"
    },
    {
      "inputs": [
        {
          "internalType": "address",
          "name": "owner",
          "type": "address"
        },
        {
          "internalType": "uint256",
          "name": "index",
          "type": "uint256"
        }
      ],
      "name": "tokenOfOwnerByIndex",
      "outputs": [
        {
          "internalType": "uint256",
          "name": "",
          "type": "uint256"
        }
      ],
      "stateMutability": "view",
      "type": "function"
    },
    {
      "inputs": [
        {
          "internalType": "uint256",
          "name": "tokenId",
          "type": "uint256"
        }
      ],
      "name": "tokenURI",
      "outputs": [
        {
          "internalType": "string",
          "name": "",
          "type": "string"
        }
      ],
      "stateMutability": "view",
      "type": "function"
    },
    {
      "inputs": [],
      "name": "totalSupply",
      "outputs": [
        {
          "internalType": "uint256",
          "name": "",
          "type": "uint256"
        }
      ],
      "stateMutability": "view",
      "type": "function"
    },
    {
      "inputs": [
        {
          "internalType": "address",
          "name": "from",
          "type": "address"
        },
        {
          "internalType": "address",
          "name": "to",
          "type": "address"
        },
        {
          "internalType": "uint256",
          "name": "tokenId",
          "type": "uint256"
        }
      ],
      "name": "transferFrom",
      "outputs": [],
      "stateMutability": "nonpayable",
      "type": "function"
    },
    {
      "inputs": [
        {
          "internalType": "address",
          "name": "newOwner",
          "type": "address"
        }
      ],
      "name": "transferOwnership",
      "outputs": [],
      "stateMutability": "nonpayable",
      "type": "function"
    }
  ],
  "bytecode": "0x60806040526001600c5534801561001557600080fd5b5060405161338e38038061338e83398181016040528101906100379190610277565b806040518060400160405280601981526020017f4173746172202620536f6e6569756d2056656e657a75656c61000000000000008152506040518060400160405280600381526020017f415356000000000000000000000000000000000000000000000000000000000081525081600090816100b391906104f4565b5080600190816100c391906104f4565b505050600073ffffffffffffffffffffffffffffffffffffffff168173ffffffffffffffffffffffffffffffffffffffff16036101385760006040517f1e4fbdf700000000000000000000000000000000000000000000000000000000815260040161012f91906105d5565b60405180910390fd5b6101478161014e60201b60201c565b50506105f0565b6000600b60009054906101000a900473ffffffffffffffffffffffffffffffffffffffff16905081600b60006101000a81548173ffffffffffffffffffffffffffffffffffffffff021916908373ffffffffffffffffffffffffffffffffffffffff1602179055508173ffffffffffffffffffffffffffffffffffffffff168173ffffffffffffffffffffffffffffffffffffffff167f8be0079c531659141344cd1fd0a4f28419497f9722a3daafe3b4186f6b6457e060405160405180910390a35050565b600080fd5b600073ffffffffffffffffffffffffffffffffffffffff82169050919050565b600061024482610219565b9050919050565b61025481610239565b811461025f57600080fd5b50565b6000815190506102718161024b565b92915050565b60006020828403121561028d5761028c610214565b5b600061029b84828501610262565b91505092915050565b600081519050919050565b7f4e487b7100000000000000000000000000000000000000000000000000000000600052604160045260246000fd5b7f4e487b7100000000000000000000000000000000000000000000000000000000600052602260045260246000fd5b6000600282049050600182168061032557607f821691505b602082108103610338576103376102de565b5b50919050565b60008190508160005260206000209050919050565b60006020601f8301049050919050565b600082821b905092915050565b6000600883026103a07fffffffffffffffffffffffffffffffffffffffffffffffffffffffffffffffff82610363565b6103aa8683610363565b95508019841693508086168417925050509392505050565b6000819050919050565b6000819050919050565b60006103f16103ec6103e7846103c2565b6103cc565b6103c2565b9050919050565b6000819050919050565b61040b836103d6565b61041f610417826103f8565b848454610370565b825550505050565b600090565b610434610427565b61043f818484610402565b505050565b5b818110156104635761045860008261042c565b600181019050610445565b5050565b601f8211156104a8576104798161033e565b61048284610353565b81016020851015610491578190505b6104a561049d85610353565b830182610444565b50505b505050565b600082821c905092915050565b60006104cb600019846008026104ad565b1980831691505092915050565b60006104e483836104ba565b9150826002028217905092915050565b6104fd826102a4565b67ffffffffffffffff811115610516576105156102af565b5b610520825461030d565b61052b828285610467565b600060209050601f83116001811461055e576000841561054c578287015190505b61055685826104d8565b8655506105be565b601f19841661056c8661033e565b60005b828110156105945784890151825560018201915060208501945060208101905061056f565b868310156105b157848901516105ad601f8916826104ba565b8355505b6001600288020188555050505b505050505050565b6105cf81610239565b82525050565b60006020820190506105ea60008301846105c6565b92915050565b612d8f806105ff6000396000f3fe608060405234801561001057600080fd5b506004361061012c5760003560e01c80636352211e116100ad578063a22cb46511610071578063a22cb46514610357578063b88d4fde14610373578063c87b56dd1461038f578063e985e9c5146103bf578063f2fde38b146103ef5761012c565b80636352211e146102b157806370a08231146102e1578063715018a6146103115780638da5cb5b1461031b57806395d89b41146103395761012c565b806323b872dd116100f457806323b872dd146101e95780632f745c591461020557806340d097c31461023557806342842e0e146102655780634f6ccce7146102815761012c565b806301ffc9a71461013157806306fdde0314610161578063081812fc1461017f578063095ea7b3146101af57806318160ddd146101cb575b600080fd5b61014b60048036038101906101469190612189565b61040b565b60405161015891906121d1565b60405180910390f35b61016961041d565b604051610176919061227c565b60405180910390f35b610199600480360381019061019491906122d4565b6104af565b6040516101a69190612342565b60405180910390f35b6101c960048036038101906101c49190612389565b6104cb565b005b6101d36104e1565b6040516101e091906123d8565b60405180910390f35b61020360048036038101906101fe91906123f3565b6104ee565b005b61021f600480360381019061021a9190612389565b6105f0565b60405161022c91906123d8565b60405180910390f35b61024f600480360381019061024a9190612446565b610699565b60405161025c91906123d8565b60405180910390f35b61027f600480360381019061027a91906123f3565b610762565b005b61029b600480360381019061029691906122d4565b610782565b6040516102a891906123d8565b60405180910390f35b6102cb60048036038101906102c691906122d4565b6107f8565b6040516102d89190612342565b60405180910390f35b6102fb60048036038101906102f69190612446565b61080a565b60405161030891906123d8565b60405180910390f35b6103196108c4565b005b6103236108d8565b6040516103309190612342565b60405180910390f35b610341610902565b60405161034e919061227c565b60405180910390f35b610371600480360381019061036c919061249f565b610994565b005b61038d60048036038101906103889190612614565b6109aa565b005b6103a960048036038101906103a491906122d4565b6109cf565b6040516103b6919061227c565b60405180910390f35b6103d960048036038101906103d49190612697565b6109e1565b6040516103e691906121d1565b60405180910390f35b61040960048036038101906104049190612446565b610a75565b005b600061041682610afb565b9050919050565b60606000805461042c90612706565b80601f016020809104026020016040519081016040528092919081815260200182805461045890612706565b80156104a55780601f1061047a576101008083540402835291602001916104a5565b820191906000526020600020905b81548152906001019060200180831161048857829003601f168201915b5050505050905090565b60006104ba82610b5c565b506104c482610be4565b9050919050565b6104dd82826104d8610c21565b610c29565b5050565b6000600880549050905090565b600073ffffffffffffffffffffffffffffffffffffffff168273ffffffffffffffffffffffffffffffffffffffff16036105605760006040517f64a0ae920000000000000000000000000000000000000000000000000000000081526004016105579190612342565b60405180910390fd5b6000610574838361056f610c21565b610c3b565b90508373ffffffffffffffffffffffffffffffffffffffff168173ffffffffffffffffffffffffffffffffffffffff16146105ea578382826040517f64283d7b0000000000000000000000000000000000000000000000000000000081526004016105e193929190612737565b60405180910390fd5b50505050565b60006105fb8361080a565b82106106405782826040517fa57d13dc00000000000000000000000000000000000000000000000000000000815260040161063792919061276e565b60405180910390fd5b600660008473ffffffffffffffffffffffffffffffffffffffff1673ffffffffffffffffffffffffffffffffffffffff168152602001908152602001600020600083815260200190815260200160002054905092915050565b60006106a3610c51565b600073ffffffffffffffffffffffffffffffffffffffff168273ffffffffffffffffffffffffffffffffffffffff1603610712576040517f08c379a0000000000000000000000000000000000000000000000000000000008152600401610709906127e3565b60405180910390fd5b6000600c600081548092919061072790612832565b9190505590506107378382610cd8565b610759816040518060800160405280605d8152602001612cfd605d9139610cf6565b80915050919050565b61077d838383604051806020016040528060008152506109aa565b505050565b600061078c6104e1565b82106107d2576000826040517fa57d13dc0000000000000000000000000000000000000000000000000000000081526004016107c992919061276e565b60405180910390fd5b600882815481106107e6576107e561287a565b5b90600052602060002001549050919050565b600061080382610b5c565b9050919050565b60008073ffffffffffffffffffffffffffffffffffffffff168273ffffffffffffffffffffffffffffffffffffffff160361087d5760006040517f89c62b640000000000000000000000000000000000000000000000000000000081526004016108749190612342565b60405180910390fd5b600360008373ffffffffffffffffffffffffffffffffffffffff1673ffffffffffffffffffffffffffffffffffffffff168152602001908152602001600020549050919050565b6108cc610c51565b6108d66000610d52565b565b6000600b60009054906101000a900473ffffffffffffffffffffffffffffffffffffffff16905090565b60606001805461091190612706565b80601f016020809104026020016040519081016040528092919081815260200182805461093d90612706565b801561098a5780601f1061095f5761010080835404028352916020019161098a565b820191906000526020600020905b81548152906001019060200180831161096d57829003601f168201915b5050505050905090565b6109a661099f610c21565b8383610e18565b5050565b6109b58484846104ee565b6109c96109c0610c21565b85858585610f87565b50505050565b60606109da82611138565b9050919050565b6000600560008473ffffffffffffffffffffffffffffffffffffffff1673ffffffffffffffffffffffffffffffffffffffff16815260200190815260200160002060008373ffffffffffffffffffffffffffffffffffffffff1673ffffffffffffffffffffffffffffffffffffffff16815260200190815260200160002060009054906101000a900460ff16905092915050565b610a7d610c51565b600073ffffffffffffffffffffffffffffffffffffffff168173ffffffffffffffffffffffffffffffffffffffff1603610aef5760006040517f1e4fbdf7000000000000000000000000000000000000000000000000000000008152600401610ae69190612342565b60405180910390fd5b610af881610d52565b50565b6000634906490660e01b7bffffffffffffffffffffffffffffffffffffffffffffffffffffffff1916827bffffffffffffffffffffffffffffffffffffffffffffffffffffffff19161480610b555750610b548261124b565b5b9050919050565b600080610b68836112c5565b9050600073ffffffffffffffffffffffffffffffffffffffff168173ffffffffffffffffffffffffffffffffffffffff1603610bdb57826040517f7e273289000000000000000000000000000000000000000000000000000000008152600401610bd291906123d8565b60405180910390fd5b80915050919050565b60006004600083815260200190815260200160002060009054906101000a900473ffffffffffffffffffffffffffffffffffffffff169050919050565b600033905090565b610c368383836001611302565b505050565b6000610c488484846114c7565b90509392505050565b610c59610c21565b73ffffffffffffffffffffffffffffffffffffffff16610c776108d8565b73ffffffffffffffffffffffffffffffffffffffff1614610cd657610c9a610c21565b6040517f118cdaa7000000000000000000000000000000000000000000000000000000008152600401610ccd9190612342565b60405180910390fd5b565b610cf28282604051806020016040528060008152506115e4565b5050565b80600a60008481526020019081526020016000209081610d169190612a55565b507ff8e1a15aba9398e019f0b49df1a4fde98ee17ae345cb5f6b5e2c27f5033e8ce782604051610d4691906123d8565b60405180910390a15050565b6000600b60009054906101000a900473ffffffffffffffffffffffffffffffffffffffff16905081600b60006101000a81548173ffffffffffffffffffffffffffffffffffffffff021916908373ffffffffffffffffffffffffffffffffffffffff1602179055508173ffffffffffffffffffffffffffffffffffffffff168173ffffffffffffffffffffffffffffffffffffffff167f8be0079c531659141344cd1fd0a4f28419497f9722a3daafe3b4186f6b6457e060405160405180910390a35050565b600073ffffffffffffffffffffffffffffffffffffffff168273ffffffffffffffffffffffffffffffffffffffff1603610e8957816040517f5b08ba18000000000000000000000000000000000000000000000000000000008152600401610e809190612342565b60405180910390fd5b80600560008573ffffffffffffffffffffffffffffffffffffffff1673ffffffffffffffffffffffffffffffffffffffff16815260200190815260200160002060008473ffffffffffffffffffffffffffffffffffffffff1673ffffffffffffffffffffffffffffffffffffffff16815260200190815260200160002060006101000a81548160ff0219169083151502179055508173ffffffffffffffffffffffffffffffffffffffff168373ffffffffffffffffffffffffffffffffffffffff167f17307eab39ab6107e8899845ad3d59bd9653f200f220920489ca2b5937696c3183604051610f7a91906121d1565b60405180910390a3505050565b60008373ffffffffffffffffffffffffffffffffffffffff163b1115611131578273ffffffffffffffffffffffffffffffffffffffff1663150b7a02868685856040518563ffffffff1660e01b8152600401610fe69493929190612b7c565b6020604051808303816000875af192505050801561102257506040513d601f19601f8201168201806040525081019061101f9190612bdd565b60015b6110a6573d8060008114611052576040519150601f19603f3d011682016040523d82523d6000602084013e611057565b606091505b50600081510361109e57836040517f64a0ae920000000000000000000000000000000000000000000000000000000081526004016110959190612342565b60405180910390fd5b805181602001fd5b63150b7a0260e01b7bffffffffffffffffffffffffffffffffffffffffffffffffffffffff1916817bffffffffffffffffffffffffffffffffffffffffffffffffffffffff19161461112f57836040517f64a0ae920000000000000000000000000000000000000000000000000000000081526004016111269190612342565b60405180910390fd5b505b5050505050565b606061114382610b5c565b506000600a6000848152602001908152602001600020805461116490612706565b80601f016020809104026020016040519081016040528092919081815260200182805461119090612706565b80156111dd5780601f106111b2576101008083540402835291602001916111dd565b820191906000526020600020905b8154815290600101906020018083116111c057829003601f168201915b5050505050905060006111ee611608565b90506000815103611203578192505050611246565b600082511115611238578082604051602001611220929190612c46565b60405160208183030381529060405292505050611246565b6112418461161f565b925050505b919050565b60007f780e9d63000000000000000000000000000000000000000000000000000000007bffffffffffffffffffffffffffffffffffffffffffffffffffffffff1916827bffffffffffffffffffffffffffffffffffffffffffffffffffffffff191614806112be57506112bd82611688565b5b9050919050565b60006002600083815260200190815260200160002060009054906101000a900473ffffffffffffffffffffffffffffffffffffffff169050919050565b808061133b5750600073ffffffffffffffffffffffffffffffffffffffff168273ffffffffffffffffffffffffffffffffffffffff1614155b1561146f57600061134b84610b5c565b9050600073ffffffffffffffffffffffffffffffffffffffff168373ffffffffffffffffffffffffffffffffffffffff16141580156113b657508273ffffffffffffffffffffffffffffffffffffffff168173ffffffffffffffffffffffffffffffffffffffff1614155b80156113c957506113c781846109e1565b155b1561140b57826040517fa9fbf51f0000000000000000000000000000000000000000000000000000000081526004016114029190612342565b60405180910390fd5b811561146d57838573ffffffffffffffffffffffffffffffffffffffff168273ffffffffffffffffffffffffffffffffffffffff167f8c5be1e5ebec7d5bd14f71427d1e84f3dd0314c0f7b2291e5b200ac8c7c3b92560405160405180910390a45b505b836004600085815260200190815260200160002060006101000a81548173ffffffffffffffffffffffffffffffffffffffff021916908373ffffffffffffffffffffffffffffffffffffffff16021790555050505050565b6000806114d585858561176a565b9050600073ffffffffffffffffffffffffffffffffffffffff168173ffffffffffffffffffffffffffffffffffffffff16036115195761151484611984565b611558565b8473ffffffffffffffffffffffffffffffffffffffff168173ffffffffffffffffffffffffffffffffffffffff16146115575761155681856119cd565b5b5b600073ffffffffffffffffffffffffffffffffffffffff168573ffffffffffffffffffffffffffffffffffffffff160361159a5761159584611ab8565b6115d9565b8473ffffffffffffffffffffffffffffffffffffffff168173ffffffffffffffffffffffffffffffffffffffff16146115d8576115d78585611b89565b5b5b809150509392505050565b6115ee8383611c14565b6116036115f9610c21565b6000858585610f87565b505050565b606060405180602001604052806000815250905090565b606061162a82610b5c565b506000611635611608565b905060008151116116555760405180602001604052806000815250611680565b8061165f84611d0d565b604051602001611670929190612c46565b6040516020818303038152906040525b915050919050565b60007f80ac58cd000000000000000000000000000000000000000000000000000000007bffffffffffffffffffffffffffffffffffffffffffffffffffffffff1916827bffffffffffffffffffffffffffffffffffffffffffffffffffffffff1916148061175357507f5b5e139f000000000000000000000000000000000000000000000000000000007bffffffffffffffffffffffffffffffffffffffffffffffffffffffff1916827bffffffffffffffffffffffffffffffffffffffffffffffffffffffff1916145b80611763575061176282611ddb565b5b9050919050565b600080611776846112c5565b9050600073ffffffffffffffffffffffffffffffffffffffff168373ffffffffffffffffffffffffffffffffffffffff16146117b8576117b7818486611e45565b5b600073ffffffffffffffffffffffffffffffffffffffff168173ffffffffffffffffffffffffffffffffffffffff1614611849576117fa600085600080611302565b6001600360008373ffffffffffffffffffffffffffffffffffffffff1673ffffffffffffffffffffffffffffffffffffffff168152602001908152602001600020600082825403925050819055505b600073ffffffffffffffffffffffffffffffffffffffff168573ffffffffffffffffffffffffffffffffffffffff16146118cc576001600360008773ffffffffffffffffffffffffffffffffffffffff1673ffffffffffffffffffffffffffffffffffffffff168152602001908152602001600020600082825401925050819055505b846002600086815260200190815260200160002060006101000a81548173ffffffffffffffffffffffffffffffffffffffff021916908373ffffffffffffffffffffffffffffffffffffffff160217905550838573ffffffffffffffffffffffffffffffffffffffff168273ffffffffffffffffffffffffffffffffffffffff167fddf252ad1be2c89b69c2b068fc378daa952ba7f163c4a11628f55a4df523b3ef60405160405180910390a4809150509392505050565b6008805490506009600083815260200190815260200160002081905550600881908060018154018082558091505060019003906000526020600020016000909190919091505550565b60006119d88361080a565b90506000600760008481526020019081526020016000205490506000600660008673ffffffffffffffffffffffffffffffffffffffff1673ffffffffffffffffffffffffffffffffffffffff1681526020019081526020016000209050828214611a845760008160008581526020019081526020016000205490508082600085815260200190815260200160002081905550826007600083815260200190815260200160002081905550505b6007600085815260200190815260200160002060009055806000848152602001908152602001600020600090555050505050565b60006001600880549050611acc9190612c6a565b9050600060096000848152602001908152602001600020549050600060088381548110611afc57611afb61287a565b5b906000526020600020015490508060088381548110611b1e57611b1d61287a565b5b906000526020600020018190555081600960008381526020019081526020016000208190555060096000858152602001908152602001600020600090556008805480611b6d57611b6c612c9e565b5b6001900381819060005260206000200160009055905550505050565b60006001611b968461080a565b611ba09190612c6a565b905081600660008573ffffffffffffffffffffffffffffffffffffffff1673ffffffffffffffffffffffffffffffffffffffff168152602001908152602001600020600083815260200190815260200160002081905550806007600084815260200190815260200160002081905550505050565b600073ffffffffffffffffffffffffffffffffffffffff168273ffffffffffffffffffffffffffffffffffffffff1603611c865760006040517f64a0ae92000000000000000000000000000000000000000000000000000000008152600401611c7d9190612342565b60405180910390fd5b6000611c9483836000610c3b565b9050600073ffffffffffffffffffffffffffffffffffffffff168173ffffffffffffffffffffffffffffffffffffffff1614611d085760006040517f73c6ac6e000000000000000000000000000000000000000000000000000000008152600401611cff9190612342565b60405180910390fd5b505050565b606060006001611d1c84611f09565b01905060008167ffffffffffffffff811115611d3b57611d3a6124e9565b5b6040519080825280601f01601f191660200182016040528015611d6d5781602001600182028036833780820191505090505b509050600082602001820190505b600115611dd0578080600190039150507f3031323334353637383961626364656600000000000000000000000000000000600a86061a8153600a8581611dc457611dc3612ccd565b5b04945060008503611d7b575b819350505050919050565b60007f01ffc9a7000000000000000000000000000000000000000000000000000000007bffffffffffffffffffffffffffffffffffffffffffffffffffffffff1916827bffffffffffffffffffffffffffffffffffffffffffffffffffffffff1916149050919050565b611e5083838361205c565b611f0457600073ffffffffffffffffffffffffffffffffffffffff168373ffffffffffffffffffffffffffffffffffffffff1603611ec557806040517f7e273289000000000000000000000000000000000000000000000000000000008152600401611ebc91906123d8565b60405180910390fd5b81816040517f177e802f000000000000000000000000000000000000000000000000000000008152600401611efb92919061276e565b60405180910390fd5b505050565b600080600090507a184f03e93ff9f4daa797ed6e38ed64bf6a1f0100000000000000008310611f67577a184f03e93ff9f4daa797ed6e38ed64bf6a1f0100000000000000008381611f5d57611f5c612ccd565b5b0492506040810190505b6d04ee2d6d415b85acef81000000008310611fa4576d04ee2d6d415b85acef81000000008381611f9a57611f99612ccd565b5b0492506020810190505b662386f26fc100008310611fd357662386f26fc100008381611fc957611fc8612ccd565b5b0492506010810190505b6305f5e1008310611ffc576305f5e1008381611ff257611ff1612ccd565b5b0492506008810190505b612710831061202157612710838161201757612016612ccd565b5b0492506004810190505b60648310612044576064838161203a57612039612ccd565b5b0492506002810190505b600a8310612053576001810190505b80915050919050565b60008073ffffffffffffffffffffffffffffffffffffffff168373ffffffffffffffffffffffffffffffffffffffff161415801561211457508273ffffffffffffffffffffffffffffffffffffffff168473ffffffffffffffffffffffffffffffffffffffff1614806120d557506120d484846109e1565b5b8061211357508273ffffffffffffffffffffffffffffffffffffffff166120fb83610be4565b73ffffffffffffffffffffffffffffffffffffffff16145b5b90509392505050565b6000604051905090565b600080fd5b600080fd5b60007fffffffff0000000000000000000000000000000000000000000000000000000082169050919050565b61216681612131565b811461217157600080fd5b50565b6000813590506121838161215d565b92915050565b60006020828403121561219f5761219e612127565b5b60006121ad84828501612174565b91505092915050565b60008115159050919050565b6121cb816121b6565b82525050565b60006020820190506121e660008301846121c2565b92915050565b600081519050919050565b600082825260208201905092915050565b60005b8381101561222657808201518184015260208101905061220b565b60008484015250505050565b6000601f19601f8301169050919050565b600061224e826121ec565b61225881856121f7565b9350612268818560208601612208565b61227181612232565b840191505092915050565b600060208201905081810360008301526122968184612243565b905092915050565b6000819050919050565b6122b18161229e565b81146122bc57600080fd5b50565b6000813590506122ce816122a8565b92915050565b6000602082840312156122ea576122e9612127565b5b60006122f8848285016122bf565b91505092915050565b600073ffffffffffffffffffffffffffffffffffffffff82169050919050565b600061232c82612301565b9050919050565b61233c81612321565b82525050565b60006020820190506123576000830184612333565b92915050565b61236681612321565b811461237157600080fd5b50565b6000813590506123838161235d565b92915050565b600080604083850312156123a05761239f612127565b5b60006123ae85828601612374565b92505060206123bf858286016122bf565b9150509250929050565b6123d28161229e565b82525050565b60006020820190506123ed60008301846123c9565b92915050565b60008060006060848603121561240c5761240b612127565b5b600061241a86828701612374565b935050602061242b86828701612374565b925050604061243c868287016122bf565b9150509250925092565b60006020828403121561245c5761245b612127565b5b600061246a84828501612374565b91505092915050565b61247c816121b6565b811461248757600080fd5b50565b60008135905061249981612473565b92915050565b600080604083850312156124b6576124b5612127565b5b60006124c485828601612374565b92505060206124d58582860161248a565b9150509250929050565b600080fd5b600080fd5b7f4e487b7100000000000000000000000000000000000000000000000000000000600052604160045260246000fd5b61252182612232565b810181811067ffffffffffffffff821117156125405761253f6124e9565b5b80604052505050565b600061255361211d565b905061255f8282612518565b919050565b600067ffffffffffffffff82111561257f5761257e6124e9565b5b61258882612232565b9050602081019050919050565b82818337600083830152505050565b60006125b76125b284612564565b612549565b9050828152602081018484840111156125d3576125d26124e4565b5b6125de848285612595565b509392505050565b600082601f8301126125fb576125fa6124df565b5b813561260b8482602086016125a4565b91505092915050565b6000806000806080858703121561262e5761262d612127565b5b600061263c87828801612374565b945050602061264d87828801612374565b935050604061265e878288016122bf565b925050606085013567ffffffffffffffff81111561267f5761267e61212c565b5b61268b878288016125e6565b91505092959194509250565b600080604083850312156126ae576126ad612127565b5b60006126bc85828601612374565b92505060206126cd85828601612374565b9150509250929050565b7f4e487b7100000000000000000000000000000000000000000000000000000000600052602260045260246000fd5b6000600282049050600182168061271e57607f821691505b602082108103612731576127306126d7565b5b50919050565b600060608201905061274c6000830186612333565b61275960208301856123c9565b6127666040830184612333565b949350505050565b60006040820190506127836000830185612333565b61279060208301846123c9565b9392505050565b7f496e76616c696420616464726573730000000000000000000000000000000000600082015250565b60006127cd600f836121f7565b91506127d882612797565b602082019050919050565b600060208201905081810360008301526127fc816127c0565b9050919050565b7f4e487b7100000000000000000000000000000000000000000000000000000000600052601160045260246000fd5b600061283d8261229e565b91507fffffffffffffffffffffffffffffffffffffffffffffffffffffffffffffffff820361286f5761286e612803565b5b600182019050919050565b7f4e487b7100000000000000000000000000000000000000000000000000000000600052603260045260246000fd5b60008190508160005260206000209050919050565b60006020601f8301049050919050565b600082821b905092915050565b60006008830261290b7fffffffffffffffffffffffffffffffffffffffffffffffffffffffffffffffff826128ce565b61291586836128ce565b95508019841693508086168417925050509392505050565b6000819050919050565b600061295261294d6129488461229e565b61292d565b61229e565b9050919050565b6000819050919050565b61296c83612937565b61298061297882612959565b8484546128db565b825550505050565b600090565b612995612988565b6129a0818484612963565b505050565b5b818110156129c4576129b960008261298d565b6001810190506129a6565b5050565b601f821115612a09576129da816128a9565b6129e3846128be565b810160208510156129f2578190505b612a066129fe856128be565b8301826129a5565b50505b505050565b600082821c905092915050565b6000612a2c60001984600802612a0e565b1980831691505092915050565b6000612a458383612a1b565b9150826002028217905092915050565b612a5e826121ec565b67ffffffffffffffff811115612a7757612a766124e9565b5b612a818254612706565b612a8c8282856129c8565b600060209050601f831160018114612abf5760008415612aad578287015190505b612ab78582612a39565b865550612b1f565b601f198416612acd866128a9565b60005b82811015612af557848901518255600182019150602085019450602081019050612ad0565b86831015612b125784890151612b0e601f891682612a1b565b8355505b6001600288020188555050505b505050505050565b600081519050919050565b600082825260208201905092915050565b6000612b4e82612b27565b612b588185612b32565b9350612b68818560208601612208565b612b7181612232565b840191505092915050565b6000608082019050612b916000830187612333565b612b9e6020830186612333565b612bab60408301856123c9565b8181036060830152612bbd8184612b43565b905095945050505050565b600081519050612bd78161215d565b92915050565b600060208284031215612bf357612bf2612127565b5b6000612c0184828501612bc8565b91505092915050565b600081905092915050565b6000612c20826121ec565b612c2a8185612c0a565b9350612c3a818560208601612208565b80840191505092915050565b6000612c528285612c15565b9150612c5e8284612c15565b91508190509392505050565b6000612c758261229e565b9150612c808361229e565b9250828203905081811115612c9857612c97612803565b5b92915050565b7f4e487b7100000000000000000000000000000000000000000000000000000000600052603160045260246000fd5b7f4e487b7100000000000000000000000000000000000000000000000000000000600052601260045260246000fdfe68747470733a2f2f676174657761792e70696e6174612e636c6f75642f697066732f6261666b72656963343471687a35737573326d3472776e366b756f326173726b6e7632706272356779636e6e6a327a6d7337717975346d79337365a26469706673582212200a998f7897599174277bcbd9a2b384b712baccdef3698992efc3f1e77e815cf564736f6c634300081c0033",
  "linkReferences": {},
  "deployedLinkReferences": {}
}